{
  "_format": "hh-sol-artifact-1",
  "contractName": "NFT",
  "sourceName": "contracts/MyNFT.sol",
  "abi": [
    {
      "inputs": [
        {
          "internalType": "address",
          "name": "initialOwner",
          "type": "address"
        },
        {
          "internalType": "address",
          "name": "_paymentToken",
          "type": "address"
        },
        {
          "internalType": "uint256",
          "name": "_mintPrice",
          "type": "uint256"
        }
      ],
      "stateMutability": "nonpayable",
      "type": "constructor"
    },
    {
      "inputs": [
        {
          "internalType": "address",
          "name": "sender",
          "type": "address"
        },
        {
          "internalType": "uint256",
          "name": "tokenId",
          "type": "uint256"
        },
        {
          "internalType": "address",
          "name": "owner",
          "type": "address"
        }
      ],
      "name": "ERC721IncorrectOwner",
      "type": "error"
    },
    {
      "inputs": [
        {
          "internalType": "address",
          "name": "operator",
          "type": "address"
        },
        {
          "internalType": "uint256",
          "name": "tokenId",
          "type": "uint256"
        }
      ],
      "name": "ERC721InsufficientApproval",
      "type": "error"
    },
    {
      "inputs": [
        {
          "internalType": "address",
          "name": "approver",
          "type": "address"
        }
      ],
      "name": "ERC721InvalidApprover",
      "type": "error"
    },
    {
      "inputs": [
        {
          "internalType": "address",
          "name": "operator",
          "type": "address"
        }
      ],
      "name": "ERC721InvalidOperator",
      "type": "error"
    },
    {
      "inputs": [
        {
          "internalType": "address",
          "name": "owner",
          "type": "address"
        }
      ],
      "name": "ERC721InvalidOwner",
      "type": "error"
    },
    {
      "inputs": [
        {
          "internalType": "address",
          "name": "receiver",
          "type": "address"
        }
      ],
      "name": "ERC721InvalidReceiver",
      "type": "error"
    },
    {
      "inputs": [
        {
          "internalType": "address",
          "name": "sender",
          "type": "address"
        }
      ],
      "name": "ERC721InvalidSender",
      "type": "error"
    },
    {
      "inputs": [
        {
          "internalType": "uint256",
          "name": "tokenId",
          "type": "uint256"
        }
      ],
      "name": "ERC721NonexistentToken",
      "type": "error"
    },
    {
      "inputs": [
        {
          "internalType": "address",
          "name": "owner",
          "type": "address"
        }
      ],
      "name": "OwnableInvalidOwner",
      "type": "error"
    },
    {
      "inputs": [
        {
          "internalType": "address",
          "name": "account",
          "type": "address"
        }
      ],
      "name": "OwnableUnauthorizedAccount",
      "type": "error"
    },
    {
      "anonymous": false,
      "inputs": [
        {
          "indexed": true,
          "internalType": "address",
          "name": "owner",
          "type": "address"
        },
        {
          "indexed": true,
          "internalType": "address",
          "name": "approved",
          "type": "address"
        },
        {
          "indexed": true,
          "internalType": "uint256",
          "name": "tokenId",
          "type": "uint256"
        }
      ],
      "name": "Approval",
      "type": "event"
    },
    {
      "anonymous": false,
      "inputs": [
        {
          "indexed": true,
          "internalType": "address",
          "name": "owner",
          "type": "address"
        },
        {
          "indexed": true,
          "internalType": "address",
          "name": "operator",
          "type": "address"
        },
        {
          "indexed": false,
          "internalType": "bool",
          "name": "approved",
          "type": "bool"
        }
      ],
      "name": "ApprovalForAll",
      "type": "event"
    },
    {
      "anonymous": false,
      "inputs": [
        {
          "indexed": true,
          "internalType": "address",
          "name": "previousOwner",
          "type": "address"
        },
        {
          "indexed": true,
          "internalType": "address",
          "name": "newOwner",
          "type": "address"
        }
      ],
      "name": "OwnershipTransferred",
      "type": "event"
    },
    {
      "anonymous": false,
      "inputs": [
        {
          "indexed": true,
          "internalType": "address",
          "name": "from",
          "type": "address"
        },
        {
          "indexed": true,
          "internalType": "address",
          "name": "to",
          "type": "address"
        },
        {
          "indexed": true,
          "internalType": "uint256",
          "name": "tokenId",
          "type": "uint256"
        }
      ],
      "name": "Transfer",
      "type": "event"
    },
    {
      "inputs": [
        {
          "internalType": "address",
          "name": "to",
          "type": "address"
        },
        {
          "internalType": "uint256",
          "name": "tokenId",
          "type": "uint256"
        }
      ],
      "name": "approve",
      "outputs": [],
      "stateMutability": "nonpayable",
      "type": "function"
    },
    {
      "inputs": [
        {
          "internalType": "address",
          "name": "owner",
          "type": "address"
        }
      ],
      "name": "balanceOf",
      "outputs": [
        {
          "internalType": "uint256",
          "name": "",
          "type": "uint256"
        }
      ],
      "stateMutability": "view",
      "type": "function"
    },
    {
      "inputs": [
        {
          "internalType": "uint256",
          "name": "tokenId",
          "type": "uint256"
        }
      ],
      "name": "burn",
      "outputs": [],
      "stateMutability": "nonpayable",
      "type": "function"
    },
    {
      "inputs": [
        {
          "internalType": "uint256",
          "name": "tokenId",
          "type": "uint256"
        }
      ],
      "name": "getApproved",
      "outputs": [
        {
          "internalType": "address",
          "name": "",
          "type": "address"
        }
      ],
      "stateMutability": "view",
      "type": "function"
    },
    {
      "inputs": [
        {
          "internalType": "address",
          "name": "owner",
          "type": "address"
        },
        {
          "internalType": "address",
          "name": "operator",
          "type": "address"
        }
      ],
      "name": "isApprovedForAll",
      "outputs": [
        {
          "internalType": "bool",
          "name": "",
          "type": "bool"
        }
      ],
      "stateMutability": "view",
      "type": "function"
    },
    {
      "inputs": [],
      "name": "mintPrice",
      "outputs": [
        {
          "internalType": "uint256",
          "name": "",
          "type": "uint256"
        }
      ],
      "stateMutability": "view",
      "type": "function"
    },
    {
      "inputs": [
        {
          "internalType": "address",
          "name": "to",
          "type": "address"
        },
        {
          "internalType": "uint256",
          "name": "tokenId",
          "type": "uint256"
        }
      ],
      "name": "mintWithPayment",
      "outputs": [],
      "stateMutability": "nonpayable",
      "type": "function"
    },
    {
      "inputs": [],
      "name": "name",
      "outputs": [
        {
          "internalType": "string",
          "name": "",
          "type": "string"
        }
      ],
      "stateMutability": "view",
      "type": "function"
    },
    {
      "inputs": [],
      "name": "owner",
      "outputs": [
        {
          "internalType": "address",
          "name": "",
          "type": "address"
        }
      ],
      "stateMutability": "view",
      "type": "function"
    },
    {
      "inputs": [
        {
          "internalType": "uint256",
          "name": "tokenId",
          "type": "uint256"
        }
      ],
      "name": "ownerOf",
      "outputs": [
        {
          "internalType": "address",
          "name": "",
          "type": "address"
        }
      ],
      "stateMutability": "view",
      "type": "function"
    },
    {
      "inputs": [],
      "name": "paymentToken",
      "outputs": [
        {
          "internalType": "contract IERC20",
          "name": "",
          "type": "address"
        }
      ],
      "stateMutability": "view",
      "type": "function"
    },
    {
      "inputs": [],
      "name": "renounceOwnership",
      "outputs": [],
      "stateMutability": "nonpayable",
      "type": "function"
    },
    {
      "inputs": [
        {
          "internalType": "address",
          "name": "from",
          "type": "address"
        },
        {
          "internalType": "address",
          "name": "to",
          "type": "address"
        },
        {
          "internalType": "uint256",
          "name": "tokenId",
          "type": "uint256"
        }
      ],
      "name": "safeTransferFrom",
      "outputs": [],
      "stateMutability": "nonpayable",
      "type": "function"
    },
    {
      "inputs": [
        {
          "internalType": "address",
          "name": "from",
          "type": "address"
        },
        {
          "internalType": "address",
          "name": "to",
          "type": "address"
        },
        {
          "internalType": "uint256",
          "name": "tokenId",
          "type": "uint256"
        },
        {
          "internalType": "bytes",
          "name": "data",
          "type": "bytes"
        }
      ],
      "name": "safeTransferFrom",
      "outputs": [],
      "stateMutability": "nonpayable",
      "type": "function"
    },
    {
      "inputs": [
        {
          "internalType": "address",
          "name": "operator",
          "type": "address"
        },
        {
          "internalType": "bool",
          "name": "approved",
          "type": "bool"
        }
      ],
      "name": "setApprovalForAll",
      "outputs": [],
      "stateMutability": "nonpayable",
      "type": "function"
    },
    {
      "inputs": [
        {
          "internalType": "bytes4",
          "name": "interfaceId",
          "type": "bytes4"
        }
      ],
      "name": "supportsInterface",
      "outputs": [
        {
          "internalType": "bool",
          "name": "",
          "type": "bool"
        }
      ],
      "stateMutability": "view",
      "type": "function"
    },
    {
      "inputs": [],
      "name": "symbol",
      "outputs": [
        {
          "internalType": "string",
          "name": "",
          "type": "string"
        }
      ],
      "stateMutability": "view",
      "type": "function"
    },
    {
      "inputs": [
        {
          "internalType": "uint256",
          "name": "tokenId",
          "type": "uint256"
        }
      ],
      "name": "tokenURI",
      "outputs": [
        {
          "internalType": "string",
          "name": "",
          "type": "string"
        }
      ],
      "stateMutability": "view",
      "type": "function"
    },
    {
      "inputs": [
        {
          "internalType": "address",
          "name": "from",
          "type": "address"
        },
        {
          "internalType": "address",
          "name": "to",
          "type": "address"
        },
        {
          "internalType": "uint256",
          "name": "tokenId",
          "type": "uint256"
        }
      ],
      "name": "transferFrom",
      "outputs": [],
      "stateMutability": "nonpayable",
      "type": "function"
    },
    {
      "inputs": [
        {
          "internalType": "address",
          "name": "newOwner",
          "type": "address"
        }
      ],
      "name": "transferOwnership",
      "outputs": [],
      "stateMutability": "nonpayable",
      "type": "function"
    },
    {
      "inputs": [
        {
          "internalType": "uint256",
          "name": "amount",
          "type": "uint256"
        }
      ],
      "name": "withdraw",
      "outputs": [],
      "stateMutability": "nonpayable",
      "type": "function"
    }
  ],
  "bytecode": "0x608060405234801561001057600080fd5b50604051612b85380380612b85833981810160405281019061003291906102f2565b826040518060400160405280600381526020017f4e465400000000000000000000000000000000000000000000000000000000008152506040518060400160405280600381526020017f4e4654000000000000000000000000000000000000000000000000000000000081525081600090816100ae919061058b565b5080600190816100be919061058b565b505050600073ffffffffffffffffffffffffffffffffffffffff168173ffffffffffffffffffffffffffffffffffffffff16036101335760006040517f1e4fbdf700000000000000000000000000000000000000000000000000000000815260040161012a919061066c565b60405180910390fd5b6101428161019360201b60201c565b5081600760006101000a81548173ffffffffffffffffffffffffffffffffffffffff021916908373ffffffffffffffffffffffffffffffffffffffff16021790555080600881905550505050610687565b6000600660009054906101000a900473ffffffffffffffffffffffffffffffffffffffff16905081600660006101000a81548173ffffffffffffffffffffffffffffffffffffffff021916908373ffffffffffffffffffffffffffffffffffffffff1602179055508173ffffffffffffffffffffffffffffffffffffffff168173ffffffffffffffffffffffffffffffffffffffff167f8be0079c531659141344cd1fd0a4f28419497f9722a3daafe3b4186f6b6457e060405160405180910390a35050565b600080fd5b600073ffffffffffffffffffffffffffffffffffffffff82169050919050565b60006102898261025e565b9050919050565b6102998161027e565b81146102a457600080fd5b50565b6000815190506102b681610290565b92915050565b6000819050919050565b6102cf816102bc565b81146102da57600080fd5b50565b6000815190506102ec816102c6565b92915050565b60008060006060848603121561030b5761030a610259565b5b6000610319868287016102a7565b935050602061032a868287016102a7565b925050604061033b868287016102dd565b9150509250925092565b600081519050919050565b7f4e487b7100000000000000000000000000000000000000000000000000000000600052604160045260246000fd5b7f4e487b7100000000000000000000000000000000000000000000000000000000600052602260045260246000fd5b600060028204905060018216806103c657607f821691505b6020821081036103d9576103d861037f565b5b50919050565b60008190508160005260206000209050919050565b60006020601f8301049050919050565b600082821b905092915050565b6000600883026104417fffffffffffffffffffffffffffffffffffffffffffffffffffffffffffffffff82610404565b61044b8683610404565b95508019841693508086168417925050509392505050565b6000819050919050565b600061048861048361047e846102bc565b610463565b6102bc565b9050919050565b6000819050919050565b6104a28361046d565b6104b66104ae8261048f565b848454610411565b825550505050565b600090565b6104cb6104be565b6104d6818484610499565b505050565b5b818110156104fa576104ef6000826104c3565b6001810190506104dc565b5050565b601f82111561053f57610510816103df565b610519846103f4565b81016020851015610528578190505b61053c610534856103f4565b8301826104db565b50505b505050565b600082821c905092915050565b600061056260001984600802610544565b1980831691505092915050565b600061057b8383610551565b9150826002028217905092915050565b61059482610345565b67ffffffffffffffff8111156105ad576105ac610350565b5b6105b782546103ae565b6105c28282856104fe565b600060209050601f8311600181146105f557600084156105e3578287015190505b6105ed858261056f565b865550610655565b601f198416610603866103df565b60005b8281101561062b57848901518255600182019150602085019450602081019050610606565b868310156106485784890151610644601f891682610551565b8355505b6001600288020188555050505b505050505050565b6106668161027e565b82525050565b6000602082019050610681600083018461065d565b92915050565b6124ef806106966000396000f3fe608060405234801561001057600080fd5b50600436106101375760003560e01c80636817c76c116100b857806395d89b411161007c57806395d89b4114610326578063a22cb46514610344578063b88d4fde14610360578063c87b56dd1461037c578063e985e9c5146103ac578063f2fde38b146103dc57610137565b80636817c76c1461029457806370a08231146102b2578063715018a6146102e25780638a045b4e146102ec5780638da5cb5b1461030857610137565b80632e1a7d4d116100ff5780632e1a7d4d146101f25780633013ce291461020e57806342842e0e1461022c57806342966c68146102485780636352211e1461026457610137565b806301ffc9a71461013c57806306fdde031461016c578063081812fc1461018a578063095ea7b3146101ba57806323b872dd146101d6575b600080fd5b61015660048036038101906101519190611b6e565b6103f8565b6040516101639190611bb6565b60405180910390f35b6101746104da565b6040516101819190611c61565b60405180910390f35b6101a4600480360381019061019f9190611cb9565b61056c565b6040516101b19190611d27565b60405180910390f35b6101d460048036038101906101cf9190611d6e565b610588565b005b6101f060048036038101906101eb9190611dae565b61059e565b005b61020c60048036038101906102079190611cb9565b6106a0565b005b61021661078a565b6040516102239190611e60565b60405180910390f35b61024660048036038101906102419190611dae565b6107b0565b005b610262600480360381019061025d9190611cb9565b6107d0565b005b61027e60048036038101906102799190611cb9565b6107e7565b60405161028b9190611d27565b60405180910390f35b61029c6107f9565b6040516102a99190611e8a565b60405180910390f35b6102cc60048036038101906102c79190611ea5565b6107ff565b6040516102d99190611e8a565b60405180910390f35b6102ea6108b9565b005b61030660048036038101906103019190611d6e565b6108cd565b005b6103106109be565b60405161031d9190611d27565b60405180910390f35b61032e6109e8565b60405161033b9190611c61565b60405180910390f35b61035e60048036038101906103599190611efe565b610a7a565b005b61037a60048036038101906103759190612073565b610a90565b005b61039660048036038101906103919190611cb9565b610ab5565b6040516103a39190611c61565b60405180910390f35b6103c660048036038101906103c191906120f6565b610b1e565b6040516103d39190611bb6565b60405180910390f35b6103f660048036038101906103f19190611ea5565b610bb2565b005b60007f80ac58cd000000000000000000000000000000000000000000000000000000007bffffffffffffffffffffffffffffffffffffffffffffffffffffffff1916827bffffffffffffffffffffffffffffffffffffffffffffffffffffffff191614806104c357507f5b5e139f000000000000000000000000000000000000000000000000000000007bffffffffffffffffffffffffffffffffffffffffffffffffffffffff1916827bffffffffffffffffffffffffffffffffffffffffffffffffffffffff1916145b806104d357506104d282610c38565b5b9050919050565b6060600080546104e990612165565b80601f016020809104026020016040519081016040528092919081815260200182805461051590612165565b80156105625780601f1061053757610100808354040283529160200191610562565b820191906000526020600020905b81548152906001019060200180831161054557829003601f168201915b5050505050905090565b600061057782610ca2565b5061058182610d2a565b9050919050565b61059a8282610595610d67565b610d6f565b5050565b600073ffffffffffffffffffffffffffffffffffffffff168273ffffffffffffffffffffffffffffffffffffffff16036106105760006040517f64a0ae920000000000000000000000000000000000000000000000000000000081526004016106079190611d27565b60405180910390fd5b6000610624838361061f610d67565b610d81565b90508373ffffffffffffffffffffffffffffffffffffffff168173ffffffffffffffffffffffffffffffffffffffff161461069a578382826040517f64283d7b00000000000000000000000000000000000000000000000000000000815260040161069193929190612196565b60405180910390fd5b50505050565b6106a8610f9b565b600760009054906101000a900473ffffffffffffffffffffffffffffffffffffffff1673ffffffffffffffffffffffffffffffffffffffff1663a9059cbb33836040518363ffffffff1660e01b81526004016107059291906121cd565b6020604051808303816000875af1158015610724573d6000803e3d6000fd5b505050506040513d601f19601f82011682018060405250810190610748919061220b565b610787576040517f08c379a000000000000000000000000000000000000000000000000000000000815260040161077e90612284565b60405180910390fd5b50565b600760009054906101000a900473ffffffffffffffffffffffffffffffffffffffff1681565b6107cb83838360405180602001604052806000815250610a90565b505050565b6107e36000826107de610d67565b610d81565b5050565b60006107f282610ca2565b9050919050565b60085481565b60008073ffffffffffffffffffffffffffffffffffffffff168273ffffffffffffffffffffffffffffffffffffffff16036108725760006040517f89c62b640000000000000000000000000000000000000000000000000000000081526004016108699190611d27565b60405180910390fd5b600360008373ffffffffffffffffffffffffffffffffffffffff1673ffffffffffffffffffffffffffffffffffffffff168152602001908152602001600020549050919050565b6108c1610f9b565b6108cb6000611022565b565b600760009054906101000a900473ffffffffffffffffffffffffffffffffffffffff1673ffffffffffffffffffffffffffffffffffffffff166323b872dd33306008546040518463ffffffff1660e01b815260040161092e939291906122a4565b6020604051808303816000875af115801561094d573d6000803e3d6000fd5b505050506040513d601f19601f82011682018060405250810190610971919061220b565b6109b0576040517f08c379a00000000000000000000000000000000000000000000000000000000081526004016109a790612327565b60405180910390fd5b6109ba82826110e8565b5050565b6000600660009054906101000a900473ffffffffffffffffffffffffffffffffffffffff16905090565b6060600180546109f790612165565b80601f0160208091040260200160405190810160405280929190818152602001828054610a2390612165565b8015610a705780601f10610a4557610100808354040283529160200191610a70565b820191906000526020600020905b815481529060010190602001808311610a5357829003601f168201915b5050505050905090565b610a8c610a85610d67565b8383611106565b5050565b610a9b84848461059e565b610aaf610aa6610d67565b85858585611275565b50505050565b6060610ac082610ca2565b506000610acb611426565b90506000815111610aeb5760405180602001604052806000815250610b16565b80610af58461143d565b604051602001610b06929190612383565b6040516020818303038152906040525b915050919050565b6000600560008473ffffffffffffffffffffffffffffffffffffffff1673ffffffffffffffffffffffffffffffffffffffff16815260200190815260200160002060008373ffffffffffffffffffffffffffffffffffffffff1673ffffffffffffffffffffffffffffffffffffffff16815260200190815260200160002060009054906101000a900460ff16905092915050565b610bba610f9b565b600073ffffffffffffffffffffffffffffffffffffffff168173ffffffffffffffffffffffffffffffffffffffff1603610c2c5760006040517f1e4fbdf7000000000000000000000000000000000000000000000000000000008152600401610c239190611d27565b60405180910390fd5b610c3581611022565b50565b60007f01ffc9a7000000000000000000000000000000000000000000000000000000007bffffffffffffffffffffffffffffffffffffffffffffffffffffffff1916827bffffffffffffffffffffffffffffffffffffffffffffffffffffffff1916149050919050565b600080610cae8361150b565b9050600073ffffffffffffffffffffffffffffffffffffffff168173ffffffffffffffffffffffffffffffffffffffff1603610d2157826040517f7e273289000000000000000000000000000000000000000000000000000000008152600401610d189190611e8a565b60405180910390fd5b80915050919050565b60006004600083815260200190815260200160002060009054906101000a900473ffffffffffffffffffffffffffffffffffffffff169050919050565b600033905090565b610d7c8383836001611548565b505050565b600080610d8d8461150b565b9050600073ffffffffffffffffffffffffffffffffffffffff168373ffffffffffffffffffffffffffffffffffffffff1614610dcf57610dce81848661170d565b5b600073ffffffffffffffffffffffffffffffffffffffff168173ffffffffffffffffffffffffffffffffffffffff1614610e6057610e11600085600080611548565b6001600360008373ffffffffffffffffffffffffffffffffffffffff1673ffffffffffffffffffffffffffffffffffffffff168152602001908152602001600020600082825403925050819055505b600073ffffffffffffffffffffffffffffffffffffffff168573ffffffffffffffffffffffffffffffffffffffff1614610ee3576001600360008773ffffffffffffffffffffffffffffffffffffffff1673ffffffffffffffffffffffffffffffffffffffff168152602001908152602001600020600082825401925050819055505b846002600086815260200190815260200160002060006101000a81548173ffffffffffffffffffffffffffffffffffffffff021916908373ffffffffffffffffffffffffffffffffffffffff160217905550838573ffffffffffffffffffffffffffffffffffffffff168273ffffffffffffffffffffffffffffffffffffffff167fddf252ad1be2c89b69c2b068fc378daa952ba7f163c4a11628f55a4df523b3ef60405160405180910390a4809150509392505050565b610fa3610d67565b73ffffffffffffffffffffffffffffffffffffffff16610fc16109be565b73ffffffffffffffffffffffffffffffffffffffff161461102057610fe4610d67565b6040517f118cdaa70000000000000000000000000000000000000000000000000000000081526004016110179190611d27565b60405180910390fd5b565b6000600660009054906101000a900473ffffffffffffffffffffffffffffffffffffffff16905081600660006101000a81548173ffffffffffffffffffffffffffffffffffffffff021916908373ffffffffffffffffffffffffffffffffffffffff1602179055508173ffffffffffffffffffffffffffffffffffffffff168173ffffffffffffffffffffffffffffffffffffffff167f8be0079c531659141344cd1fd0a4f28419497f9722a3daafe3b4186f6b6457e060405160405180910390a35050565b6111028282604051806020016040528060008152506117d1565b5050565b600073ffffffffffffffffffffffffffffffffffffffff168273ffffffffffffffffffffffffffffffffffffffff160361117757816040517f5b08ba1800000000000000000000000000000000000000000000000000000000815260040161116e9190611d27565b60405180910390fd5b80600560008573ffffffffffffffffffffffffffffffffffffffff1673ffffffffffffffffffffffffffffffffffffffff16815260200190815260200160002060008473ffffffffffffffffffffffffffffffffffffffff1673ffffffffffffffffffffffffffffffffffffffff16815260200190815260200160002060006101000a81548160ff0219169083151502179055508173ffffffffffffffffffffffffffffffffffffffff168373ffffffffffffffffffffffffffffffffffffffff167f17307eab39ab6107e8899845ad3d59bd9653f200f220920489ca2b5937696c31836040516112689190611bb6565b60405180910390a3505050565b60008373ffffffffffffffffffffffffffffffffffffffff163b111561141f578273ffffffffffffffffffffffffffffffffffffffff1663150b7a02868685856040518563ffffffff1660e01b81526004016112d494939291906123fc565b6020604051808303816000875af192505050801561131057506040513d601f19601f8201168201806040525081019061130d919061245d565b60015b611394573d8060008114611340576040519150601f19603f3d011682016040523d82523d6000602084013e611345565b606091505b50600081510361138c57836040517f64a0ae920000000000000000000000000000000000000000000000000000000081526004016113839190611d27565b60405180910390fd5b805181602001fd5b63150b7a0260e01b7bffffffffffffffffffffffffffffffffffffffffffffffffffffffff1916817bffffffffffffffffffffffffffffffffffffffffffffffffffffffff19161461141d57836040517f64a0ae920000000000000000000000000000000000000000000000000000000081526004016114149190611d27565b60405180910390fd5b505b5050505050565b606060405180602001604052806000815250905090565b60606000600161144c846117f5565b01905060008167ffffffffffffffff81111561146b5761146a611f48565b5b6040519080825280601f01601f19166020018201604052801561149d5781602001600182028036833780820191505090505b509050600082602001820190505b600115611500578080600190039150507f3031323334353637383961626364656600000000000000000000000000000000600a86061a8153600a85816114f4576114f361248a565b5b049450600085036114ab575b819350505050919050565b60006002600083815260200190815260200160002060009054906101000a900473ffffffffffffffffffffffffffffffffffffffff169050919050565b80806115815750600073ffffffffffffffffffffffffffffffffffffffff168273ffffffffffffffffffffffffffffffffffffffff1614155b156116b557600061159184610ca2565b9050600073ffffffffffffffffffffffffffffffffffffffff168373ffffffffffffffffffffffffffffffffffffffff16141580156115fc57508273ffffffffffffffffffffffffffffffffffffffff168173ffffffffffffffffffffffffffffffffffffffff1614155b801561160f575061160d8184610b1e565b155b1561165157826040517fa9fbf51f0000000000000000000000000000000000000000000000000000000081526004016116489190611d27565b60405180910390fd5b81156116b357838573ffffffffffffffffffffffffffffffffffffffff168273ffffffffffffffffffffffffffffffffffffffff167f8c5be1e5ebec7d5bd14f71427d1e84f3dd0314c0f7b2291e5b200ac8c7c3b92560405160405180910390a45b505b836004600085815260200190815260200160002060006101000a81548173ffffffffffffffffffffffffffffffffffffffff021916908373ffffffffffffffffffffffffffffffffffffffff16021790555050505050565b611718838383611948565b6117cc57600073ffffffffffffffffffffffffffffffffffffffff168373ffffffffffffffffffffffffffffffffffffffff160361178d57806040517f7e2732890000000000000000000000000000000000000000000000000000000081526004016117849190611e8a565b60405180910390fd5b81816040517f177e802f0000000000000000000000000000000000000000000000000000000081526004016117c39291906121cd565b60405180910390fd5b505050565b6117db8383611a09565b6117f06117e6610d67565b6000858585611275565b505050565b600080600090507a184f03e93ff9f4daa797ed6e38ed64bf6a1f0100000000000000008310611853577a184f03e93ff9f4daa797ed6e38ed64bf6a1f01000000000000000083816118495761184861248a565b5b0492506040810190505b6d04ee2d6d415b85acef81000000008310611890576d04ee2d6d415b85acef810000000083816118865761188561248a565b5b0492506020810190505b662386f26fc1000083106118bf57662386f26fc1000083816118b5576118b461248a565b5b0492506010810190505b6305f5e10083106118e8576305f5e10083816118de576118dd61248a565b5b0492506008810190505b612710831061190d5761271083816119035761190261248a565b5b0492506004810190505b6064831061193057606483816119265761192561248a565b5b0492506002810190505b600a831061193f576001810190505b80915050919050565b60008073ffffffffffffffffffffffffffffffffffffffff168373ffffffffffffffffffffffffffffffffffffffff1614158015611a0057508273ffffffffffffffffffffffffffffffffffffffff168473ffffffffffffffffffffffffffffffffffffffff1614806119c157506119c08484610b1e565b5b806119ff57508273ffffffffffffffffffffffffffffffffffffffff166119e783610d2a565b73ffffffffffffffffffffffffffffffffffffffff16145b5b90509392505050565b600073ffffffffffffffffffffffffffffffffffffffff168273ffffffffffffffffffffffffffffffffffffffff1603611a7b5760006040517f64a0ae92000000000000000000000000000000000000000000000000000000008152600401611a729190611d27565b60405180910390fd5b6000611a8983836000610d81565b9050600073ffffffffffffffffffffffffffffffffffffffff168173ffffffffffffffffffffffffffffffffffffffff1614611afd5760006040517f73c6ac6e000000000000000000000000000000000000000000000000000000008152600401611af49190611d27565b60405180910390fd5b505050565b6000604051905090565b600080fd5b600080fd5b60007fffffffff0000000000000000000000000000000000000000000000000000000082169050919050565b611b4b81611b16565b8114611b5657600080fd5b50565b600081359050611b6881611b42565b92915050565b600060208284031215611b8457611b83611b0c565b5b6000611b9284828501611b59565b91505092915050565b60008115159050919050565b611bb081611b9b565b82525050565b6000602082019050611bcb6000830184611ba7565b92915050565b600081519050919050565b600082825260208201905092915050565b60005b83811015611c0b578082015181840152602081019050611bf0565b60008484015250505050565b6000601f19601f8301169050919050565b6000611c3382611bd1565b611c3d8185611bdc565b9350611c4d818560208601611bed565b611c5681611c17565b840191505092915050565b60006020820190508181036000830152611c7b8184611c28565b905092915050565b6000819050919050565b611c9681611c83565b8114611ca157600080fd5b50565b600081359050611cb381611c8d565b92915050565b600060208284031215611ccf57611cce611b0c565b5b6000611cdd84828501611ca4565b91505092915050565b600073ffffffffffffffffffffffffffffffffffffffff82169050919050565b6000611d1182611ce6565b9050919050565b611d2181611d06565b82525050565b6000602082019050611d3c6000830184611d18565b92915050565b611d4b81611d06565b8114611d5657600080fd5b50565b600081359050611d6881611d42565b92915050565b60008060408385031215611d8557611d84611b0c565b5b6000611d9385828601611d59565b9250506020611da485828601611ca4565b9150509250929050565b600080600060608486031215611dc757611dc6611b0c565b5b6000611dd586828701611d59565b9350506020611de686828701611d59565b9250506040611df786828701611ca4565b9150509250925092565b6000819050919050565b6000611e26611e21611e1c84611ce6565b611e01565b611ce6565b9050919050565b6000611e3882611e0b565b9050919050565b6000611e4a82611e2d565b9050919050565b611e5a81611e3f565b82525050565b6000602082019050611e756000830184611e51565b92915050565b611e8481611c83565b82525050565b6000602082019050611e9f6000830184611e7b565b92915050565b600060208284031215611ebb57611eba611b0c565b5b6000611ec984828501611d59565b91505092915050565b611edb81611b9b565b8114611ee657600080fd5b50565b600081359050611ef881611ed2565b92915050565b60008060408385031215611f1557611f14611b0c565b5b6000611f2385828601611d59565b9250506020611f3485828601611ee9565b9150509250929050565b600080fd5b600080fd5b7f4e487b7100000000000000000000000000000000000000000000000000000000600052604160045260246000fd5b611f8082611c17565b810181811067ffffffffffffffff82111715611f9f57611f9e611f48565b5b80604052505050565b6000611fb2611b02565b9050611fbe8282611f77565b919050565b600067ffffffffffffffff821115611fde57611fdd611f48565b5b611fe782611c17565b9050602081019050919050565b82818337600083830152505050565b600061201661201184611fc3565b611fa8565b90508281526020810184848401111561203257612031611f43565b5b61203d848285611ff4565b509392505050565b600082601f83011261205a57612059611f3e565b5b813561206a848260208601612003565b91505092915050565b6000806000806080858703121561208d5761208c611b0c565b5b600061209b87828801611d59565b94505060206120ac87828801611d59565b93505060406120bd87828801611ca4565b925050606085013567ffffffffffffffff8111156120de576120dd611b11565b5b6120ea87828801612045565b91505092959194509250565b6000806040838503121561210d5761210c611b0c565b5b600061211b85828601611d59565b925050602061212c85828601611d59565b9150509250929050565b7f4e487b7100000000000000000000000000000000000000000000000000000000600052602260045260246000fd5b6000600282049050600182168061217d57607f821691505b6020821081036121905761218f612136565b5b50919050565b60006060820190506121ab6000830186611d18565b6121b86020830185611e7b565b6121c56040830184611d18565b949350505050565b60006040820190506121e26000830185611d18565b6121ef6020830184611e7b565b9392505050565b60008151905061220581611ed2565b92915050565b60006020828403121561222157612220611b0c565b5b600061222f848285016121f6565b91505092915050565b7f5769746864726177616c206661696c6564000000000000000000000000000000600082015250565b600061226e601183611bdc565b915061227982612238565b602082019050919050565b6000602082019050818103600083015261229d81612261565b9050919050565b60006060820190506122b96000830186611d18565b6122c66020830185611d18565b6122d36040830184611e7b565b949350505050565b7f5061796d656e74206661696c6564000000000000000000000000000000000000600082015250565b6000612311600e83611bdc565b915061231c826122db565b602082019050919050565b6000602082019050818103600083015261234081612304565b9050919050565b600081905092915050565b600061235d82611bd1565b6123678185612347565b9350612377818560208601611bed565b80840191505092915050565b600061238f8285612352565b915061239b8284612352565b91508190509392505050565b600081519050919050565b600082825260208201905092915050565b60006123ce826123a7565b6123d881856123b2565b93506123e8818560208601611bed565b6123f181611c17565b840191505092915050565b60006080820190506124116000830187611d18565b61241e6020830186611d18565b61242b6040830185611e7b565b818103606083015261243d81846123c3565b905095945050505050565b60008151905061245781611b42565b92915050565b60006020828403121561247357612472611b0c565b5b600061248184828501612448565b91505092915050565b7f4e487b7100000000000000000000000000000000000000000000000000000000600052601260045260246000fdfea2646970667358221220983a4b38adbecefe475ddc3fb1cc9875a1dc403a079c1283caf53f2311ccc31964736f6c634300081c0033",
  "linkReferences": {},
  "deployedLinkReferences": {}
}