{
  "_format": "hh-sol-artifact-1",
  "contractName": "MyToken",
  "sourceName": "contracts/MyToken.sol",
  "abi": [
    {
      "inputs": [],
      "stateMutability": "nonpayable",
      "type": "constructor"
    },
    {
      "inputs": [
        {
          "internalType": "address",
          "name": "spender",
          "type": "address"
        },
        {
          "internalType": "uint256",
          "name": "allowance",
          "type": "uint256"
        },
        {
          "internalType": "uint256",
          "name": "needed",
          "type": "uint256"
        }
      ],
      "name": "ERC20InsufficientAllowance",
      "type": "error"
    },
    {
      "inputs": [
        {
          "internalType": "address",
          "name": "sender",
          "type": "address"
        },
        {
          "internalType": "uint256",
          "name": "balance",
          "type": "uint256"
        },
        {
          "internalType": "uint256",
          "name": "needed",
          "type": "uint256"
        }
      ],
      "name": "ERC20InsufficientBalance",
      "type": "error"
    },
    {
      "inputs": [
        {
          "internalType": "address",
          "name": "approver",
          "type": "address"
        }
      ],
      "name": "ERC20InvalidApprover",
      "type": "error"
    },
    {
      "inputs": [
        {
          "internalType": "address",
          "name": "receiver",
          "type": "address"
        }
      ],
      "name": "ERC20InvalidReceiver",
      "type": "error"
    },
    {
      "inputs": [
        {
          "internalType": "address",
          "name": "sender",
          "type": "address"
        }
      ],
      "name": "ERC20InvalidSender",
      "type": "error"
    },
    {
      "inputs": [
        {
          "internalType": "address",
          "name": "spender",
          "type": "address"
        }
      ],
      "name": "ERC20InvalidSpender",
      "type": "error"
    },
    {
      "inputs": [
        {
          "internalType": "address",
          "name": "owner",
          "type": "address"
        }
      ],
      "name": "OwnableInvalidOwner",
      "type": "error"
    },
    {
      "inputs": [
        {
          "internalType": "address",
          "name": "account",
          "type": "address"
        }
      ],
      "name": "OwnableUnauthorizedAccount",
      "type": "error"
    },
    {
      "anonymous": false,
      "inputs": [
        {
          "indexed": true,
          "internalType": "address",
          "name": "owner",
          "type": "address"
        },
        {
          "indexed": true,
          "internalType": "address",
          "name": "spender",
          "type": "address"
        },
        {
          "indexed": false,
          "internalType": "uint256",
          "name": "value",
          "type": "uint256"
        }
      ],
      "name": "Approval",
      "type": "event"
    },
    {
      "anonymous": false,
      "inputs": [
        {
          "indexed": true,
          "internalType": "address",
          "name": "previousOwner",
          "type": "address"
        },
        {
          "indexed": true,
          "internalType": "address",
          "name": "newOwner",
          "type": "address"
        }
      ],
      "name": "OwnershipTransferred",
      "type": "event"
    },
    {
      "anonymous": false,
      "inputs": [
        {
          "indexed": true,
          "internalType": "address",
          "name": "from",
          "type": "address"
        },
        {
          "indexed": true,
          "internalType": "address",
          "name": "to",
          "type": "address"
        },
        {
          "indexed": false,
          "internalType": "uint256",
          "name": "value",
          "type": "uint256"
        }
      ],
      "name": "Transfer",
      "type": "event"
    },
    {
      "stateMutability": "payable",
      "type": "fallback"
    },
    {
      "inputs": [
        {
          "internalType": "address",
          "name": "owner",
          "type": "address"
        },
        {
          "internalType": "address",
          "name": "spender",
          "type": "address"
        }
      ],
      "name": "allowance",
      "outputs": [
        {
          "internalType": "uint256",
          "name": "",
          "type": "uint256"
        }
      ],
      "stateMutability": "view",
      "type": "function"
    },
    {
      "inputs": [
        {
          "internalType": "address",
          "name": "spender",
          "type": "address"
        },
        {
          "internalType": "uint256",
          "name": "value",
          "type": "uint256"
        }
      ],
      "name": "approve",
      "outputs": [
        {
          "internalType": "bool",
          "name": "",
          "type": "bool"
        }
      ],
      "stateMutability": "nonpayable",
      "type": "function"
    },
    {
      "inputs": [
        {
          "internalType": "address",
          "name": "account",
          "type": "address"
        }
      ],
      "name": "balanceOf",
      "outputs": [
        {
          "internalType": "uint256",
          "name": "",
          "type": "uint256"
        }
      ],
      "stateMutability": "view",
      "type": "function"
    },
    {
      "inputs": [],
      "name": "decimals",
      "outputs": [
        {
          "internalType": "uint8",
          "name": "",
          "type": "uint8"
        }
      ],
      "stateMutability": "view",
      "type": "function"
    },
    {
      "inputs": [
        {
          "internalType": "uint256",
          "name": "amount",
          "type": "uint256"
        }
      ],
      "name": "mint",
      "outputs": [],
      "stateMutability": "payable",
      "type": "function"
    },
    {
      "inputs": [],
      "name": "mintPrice",
      "outputs": [
        {
          "internalType": "uint256",
          "name": "",
          "type": "uint256"
        }
      ],
      "stateMutability": "view",
      "type": "function"
    },
    {
      "inputs": [],
      "name": "name",
      "outputs": [
        {
          "internalType": "string",
          "name": "",
          "type": "string"
        }
      ],
      "stateMutability": "view",
      "type": "function"
    },
    {
      "inputs": [],
      "name": "owner",
      "outputs": [
        {
          "internalType": "address",
          "name": "",
          "type": "address"
        }
      ],
      "stateMutability": "view",
      "type": "function"
    },
    {
      "inputs": [],
      "name": "renounceOwnership",
      "outputs": [],
      "stateMutability": "nonpayable",
      "type": "function"
    },
    {
      "inputs": [
        {
          "internalType": "uint256",
          "name": "newPrice",
          "type": "uint256"
        }
      ],
      "name": "setMintPrice",
      "outputs": [],
      "stateMutability": "nonpayable",
      "type": "function"
    },
    {
      "inputs": [],
      "name": "symbol",
      "outputs": [
        {
          "internalType": "string",
          "name": "",
          "type": "string"
        }
      ],
      "stateMutability": "view",
      "type": "function"
    },
    {
      "inputs": [],
      "name": "totalSupply",
      "outputs": [
        {
          "internalType": "uint256",
          "name": "",
          "type": "uint256"
        }
      ],
      "stateMutability": "view",
      "type": "function"
    },
    {
      "inputs": [
        {
          "internalType": "address",
          "name": "to",
          "type": "address"
        },
        {
          "internalType": "uint256",
          "name": "value",
          "type": "uint256"
        }
      ],
      "name": "transfer",
      "outputs": [
        {
          "internalType": "bool",
          "name": "",
          "type": "bool"
        }
      ],
      "stateMutability": "nonpayable",
      "type": "function"
    },
    {
      "inputs": [
        {
          "internalType": "address",
          "name": "from",
          "type": "address"
        },
        {
          "internalType": "address",
          "name": "to",
          "type": "address"
        },
        {
          "internalType": "uint256",
          "name": "value",
          "type": "uint256"
        }
      ],
      "name": "transferFrom",
      "outputs": [
        {
          "internalType": "bool",
          "name": "",
          "type": "bool"
        }
      ],
      "stateMutability": "nonpayable",
      "type": "function"
    },
    {
      "inputs": [
        {
          "internalType": "address",
          "name": "newOwner",
          "type": "address"
        }
      ],
      "name": "transferOwnership",
      "outputs": [],
      "stateMutability": "nonpayable",
      "type": "function"
    },
    {
      "inputs": [],
      "name": "withdraw",
      "outputs": [],
      "stateMutability": "nonpayable",
      "type": "function"
    },
    {
      "stateMutability": "payable",
      "type": "receive"
    }
  ],
  "bytecode": "0x6080604052662386f26fc1000060065534801561001b57600080fd5b50336040518060400160405280600781526020017f4d79546f6b656e000000000000000000000000000000000000000000000000008152506040518060400160405280600381526020017f4d544b000000000000000000000000000000000000000000000000000000000081525081600390816100989190610448565b5080600490816100a89190610448565b505050600073ffffffffffffffffffffffffffffffffffffffff168173ffffffffffffffffffffffffffffffffffffffff160361011d5760006040517f1e4fbdf7000000000000000000000000000000000000000000000000000000008152600401610114919061055b565b60405180910390fd5b61012c8161013260201b60201c565b50610576565b6000600560009054906101000a900473ffffffffffffffffffffffffffffffffffffffff16905081600560006101000a81548173ffffffffffffffffffffffffffffffffffffffff021916908373ffffffffffffffffffffffffffffffffffffffff1602179055508173ffffffffffffffffffffffffffffffffffffffff168173ffffffffffffffffffffffffffffffffffffffff167f8be0079c531659141344cd1fd0a4f28419497f9722a3daafe3b4186f6b6457e060405160405180910390a35050565b600081519050919050565b7f4e487b7100000000000000000000000000000000000000000000000000000000600052604160045260246000fd5b7f4e487b7100000000000000000000000000000000000000000000000000000000600052602260045260246000fd5b6000600282049050600182168061027957607f821691505b60208210810361028c5761028b610232565b5b50919050565b60008190508160005260206000209050919050565b60006020601f8301049050919050565b600082821b905092915050565b6000600883026102f47fffffffffffffffffffffffffffffffffffffffffffffffffffffffffffffffff826102b7565b6102fe86836102b7565b95508019841693508086168417925050509392505050565b6000819050919050565b6000819050919050565b600061034561034061033b84610316565b610320565b610316565b9050919050565b6000819050919050565b61035f8361032a565b61037361036b8261034c565b8484546102c4565b825550505050565b600090565b61038861037b565b610393818484610356565b505050565b5b818110156103b7576103ac600082610380565b600181019050610399565b5050565b601f8211156103fc576103cd81610292565b6103d6846102a7565b810160208510156103e5578190505b6103f96103f1856102a7565b830182610398565b50505b505050565b600082821c905092915050565b600061041f60001984600802610401565b1980831691505092915050565b6000610438838361040e565b9150826002028217905092915050565b610451826101f8565b67ffffffffffffffff81111561046a57610469610203565b5b6104748254610261565b61047f8282856103bb565b600060209050601f8311600181146104b257600084156104a0578287015190505b6104aa858261042c565b865550610512565b601f1984166104c086610292565b60005b828110156104e8578489015182556001820191506020850194506020810190506104c3565b868310156105055784890151610501601f89168261040e565b8355505b6001600288020188555050505b505050505050565b600073ffffffffffffffffffffffffffffffffffffffff82169050919050565b60006105458261051a565b9050919050565b6105558161053a565b82525050565b6000602082019050610570600083018461054c565b92915050565b611459806105856000396000f3fe6080604052600436106100f75760003560e01c8063715018a61161008a578063a9059cbb11610059578063a9059cbb146102fd578063dd62ed3e1461033a578063f2fde38b14610377578063f4a0a528146103a0576100f8565b8063715018a6146102745780638da5cb5b1461028b57806395d89b41146102b6578063a0712d68146102e1576100f8565b8063313ce567116100c6578063313ce567146101ca5780633ccfd60b146101f55780636817c76c1461020c57806370a0823114610237576100f8565b806306fdde03146100fa578063095ea7b31461012557806318160ddd1461016257806323b872dd1461018d576100f8565b5b005b34801561010657600080fd5b5061010f6103c9565b60405161011c9190610fd2565b60405180910390f35b34801561013157600080fd5b5061014c6004803603810190610147919061108d565b61045b565b60405161015991906110e8565b60405180910390f35b34801561016e57600080fd5b5061017761047e565b6040516101849190611112565b60405180910390f35b34801561019957600080fd5b506101b460048036038101906101af919061112d565b610488565b6040516101c191906110e8565b60405180910390f35b3480156101d657600080fd5b506101df6104b7565b6040516101ec919061119c565b60405180910390f35b34801561020157600080fd5b5061020a6104c0565b005b34801561021857600080fd5b50610221610518565b60405161022e9190611112565b60405180910390f35b34801561024357600080fd5b5061025e600480360381019061025991906111b7565b61051e565b60405161026b9190611112565b60405180910390f35b34801561028057600080fd5b50610289610566565b005b34801561029757600080fd5b506102a061057a565b6040516102ad91906111f3565b60405180910390f35b3480156102c257600080fd5b506102cb6105a4565b6040516102d89190610fd2565b60405180910390f35b6102fb60048036038101906102f6919061120e565b610636565b005b34801561030957600080fd5b50610324600480360381019061031f919061108d565b610692565b60405161033191906110e8565b60405180910390f35b34801561034657600080fd5b50610361600480360381019061035c919061123b565b6106b5565b60405161036e9190611112565b60405180910390f35b34801561038357600080fd5b5061039e600480360381019061039991906111b7565b61073c565b005b3480156103ac57600080fd5b506103c760048036038101906103c2919061120e565b6107c2565b005b6060600380546103d8906112aa565b80601f0160208091040260200160405190810160405280929190818152602001828054610404906112aa565b80156104515780601f1061042657610100808354040283529160200191610451565b820191906000526020600020905b81548152906001019060200180831161043457829003601f168201915b5050505050905090565b6000806104666107d4565b90506104738185856107dc565b600191505092915050565b6000600254905090565b6000806104936107d4565b90506104a08582856107ee565b6104ab858585610883565b60019150509392505050565b60006012905090565b6104c8610977565b6104d061057a565b73ffffffffffffffffffffffffffffffffffffffff166108fc479081150290604051600060405180830381858888f19350505050158015610515573d6000803e3d6000fd5b50565b60065481565b60008060008373ffffffffffffffffffffffffffffffffffffffff1673ffffffffffffffffffffffffffffffffffffffff168152602001908152602001600020549050919050565b61056e610977565b61057860006109fe565b565b6000600560009054906101000a900473ffffffffffffffffffffffffffffffffffffffff16905090565b6060600480546105b3906112aa565b80601f01602080910402602001604051908101604052809291908181526020018280546105df906112aa565b801561062c5780601f106106015761010080835404028352916020019161062c565b820191906000526020600020905b81548152906001019060200180831161060f57829003601f168201915b5050505050905090565b80600654610644919061130a565b3414610685576040517f08c379a000000000000000000000000000000000000000000000000000000000815260040161067c90611398565b60405180910390fd5b61068f3382610ac4565b50565b60008061069d6107d4565b90506106aa818585610883565b600191505092915050565b6000600160008473ffffffffffffffffffffffffffffffffffffffff1673ffffffffffffffffffffffffffffffffffffffff16815260200190815260200160002060008373ffffffffffffffffffffffffffffffffffffffff1673ffffffffffffffffffffffffffffffffffffffff16815260200190815260200160002054905092915050565b610744610977565b600073ffffffffffffffffffffffffffffffffffffffff168173ffffffffffffffffffffffffffffffffffffffff16036107b65760006040517f1e4fbdf70000000000000000000000000000000000000000000000000000000081526004016107ad91906111f3565b60405180910390fd5b6107bf816109fe565b50565b6107ca610977565b8060068190555050565b600033905090565b6107e98383836001610b46565b505050565b60006107fa84846106b5565b90507fffffffffffffffffffffffffffffffffffffffffffffffffffffffffffffffff81101561087d578181101561086d578281836040517ffb8f41b2000000000000000000000000000000000000000000000000000000008152600401610864939291906113b8565b60405180910390fd5b61087c84848484036000610b46565b5b50505050565b600073ffffffffffffffffffffffffffffffffffffffff168373ffffffffffffffffffffffffffffffffffffffff16036108f55760006040517f96c6fd1e0000000000000000000000000000000000000000000000000000000081526004016108ec91906111f3565b60405180910390fd5b600073ffffffffffffffffffffffffffffffffffffffff168273ffffffffffffffffffffffffffffffffffffffff16036109675760006040517fec442f0500000000000000000000000000000000000000000000000000000000815260040161095e91906111f3565b60405180910390fd5b610972838383610d1d565b505050565b61097f6107d4565b73ffffffffffffffffffffffffffffffffffffffff1661099d61057a565b73ffffffffffffffffffffffffffffffffffffffff16146109fc576109c06107d4565b6040517f118cdaa70000000000000000000000000000000000000000000000000000000081526004016109f391906111f3565b60405180910390fd5b565b6000600560009054906101000a900473ffffffffffffffffffffffffffffffffffffffff16905081600560006101000a81548173ffffffffffffffffffffffffffffffffffffffff021916908373ffffffffffffffffffffffffffffffffffffffff1602179055508173ffffffffffffffffffffffffffffffffffffffff168173ffffffffffffffffffffffffffffffffffffffff167f8be0079c531659141344cd1fd0a4f28419497f9722a3daafe3b4186f6b6457e060405160405180910390a35050565b600073ffffffffffffffffffffffffffffffffffffffff168273ffffffffffffffffffffffffffffffffffffffff1603610b365760006040517fec442f05000000000000000000000000000000000000000000000000000000008152600401610b2d91906111f3565b60405180910390fd5b610b4260008383610d1d565b5050565b600073ffffffffffffffffffffffffffffffffffffffff168473ffffffffffffffffffffffffffffffffffffffff1603610bb85760006040517fe602df05000000000000000000000000000000000000000000000000000000008152600401610baf91906111f3565b60405180910390fd5b600073ffffffffffffffffffffffffffffffffffffffff168373ffffffffffffffffffffffffffffffffffffffff1603610c2a5760006040517f94280d62000000000000000000000000000000000000000000000000000000008152600401610c2191906111f3565b60405180910390fd5b81600160008673ffffffffffffffffffffffffffffffffffffffff1673ffffffffffffffffffffffffffffffffffffffff16815260200190815260200160002060008573ffffffffffffffffffffffffffffffffffffffff1673ffffffffffffffffffffffffffffffffffffffff168152602001908152602001600020819055508015610d17578273ffffffffffffffffffffffffffffffffffffffff168473ffffffffffffffffffffffffffffffffffffffff167f8c5be1e5ebec7d5bd14f71427d1e84f3dd0314c0f7b2291e5b200ac8c7c3b92584604051610d0e9190611112565b60405180910390a35b50505050565b600073ffffffffffffffffffffffffffffffffffffffff168373ffffffffffffffffffffffffffffffffffffffff1603610d6f578060026000828254610d6391906113ef565b92505081905550610e42565b60008060008573ffffffffffffffffffffffffffffffffffffffff1673ffffffffffffffffffffffffffffffffffffffff16815260200190815260200160002054905081811015610dfb578381836040517fe450d38c000000000000000000000000000000000000000000000000000000008152600401610df2939291906113b8565b60405180910390fd5b8181036000808673ffffffffffffffffffffffffffffffffffffffff1673ffffffffffffffffffffffffffffffffffffffff16815260200190815260200160002081905550505b600073ffffffffffffffffffffffffffffffffffffffff168273ffffffffffffffffffffffffffffffffffffffff1603610e8b5780600260008282540392505081905550610ed8565b806000808473ffffffffffffffffffffffffffffffffffffffff1673ffffffffffffffffffffffffffffffffffffffff168152602001908152602001600020600082825401925050819055505b8173ffffffffffffffffffffffffffffffffffffffff168373ffffffffffffffffffffffffffffffffffffffff167fddf252ad1be2c89b69c2b068fc378daa952ba7f163c4a11628f55a4df523b3ef83604051610f359190611112565b60405180910390a3505050565b600081519050919050565b600082825260208201905092915050565b60005b83811015610f7c578082015181840152602081019050610f61565b60008484015250505050565b6000601f19601f8301169050919050565b6000610fa482610f42565b610fae8185610f4d565b9350610fbe818560208601610f5e565b610fc781610f88565b840191505092915050565b60006020820190508181036000830152610fec8184610f99565b905092915050565b600080fd5b600073ffffffffffffffffffffffffffffffffffffffff82169050919050565b600061102482610ff9565b9050919050565b61103481611019565b811461103f57600080fd5b50565b6000813590506110518161102b565b92915050565b6000819050919050565b61106a81611057565b811461107557600080fd5b50565b60008135905061108781611061565b92915050565b600080604083850312156110a4576110a3610ff4565b5b60006110b285828601611042565b92505060206110c385828601611078565b9150509250929050565b60008115159050919050565b6110e2816110cd565b82525050565b60006020820190506110fd60008301846110d9565b92915050565b61110c81611057565b82525050565b60006020820190506111276000830184611103565b92915050565b60008060006060848603121561114657611145610ff4565b5b600061115486828701611042565b935050602061116586828701611042565b925050604061117686828701611078565b9150509250925092565b600060ff82169050919050565b61119681611180565b82525050565b60006020820190506111b1600083018461118d565b92915050565b6000602082840312156111cd576111cc610ff4565b5b60006111db84828501611042565b91505092915050565b6111ed81611019565b82525050565b600060208201905061120860008301846111e4565b92915050565b60006020828403121561122457611223610ff4565b5b600061123284828501611078565b91505092915050565b6000806040838503121561125257611251610ff4565b5b600061126085828601611042565b925050602061127185828601611042565b9150509250929050565b7f4e487b7100000000000000000000000000000000000000000000000000000000600052602260045260246000fd5b600060028204905060018216806112c257607f821691505b6020821081036112d5576112d461127b565b5b50919050565b7f4e487b7100000000000000000000000000000000000000000000000000000000600052601160045260246000fd5b600061131582611057565b915061132083611057565b925082820261132e81611057565b91508282048414831517611345576113446112db565b5b5092915050565b7f496e636f7272656374207061796d656e7420616d6f756e740000000000000000600082015250565b6000611382601883610f4d565b915061138d8261134c565b602082019050919050565b600060208201905081810360008301526113b181611375565b9050919050565b60006060820190506113cd60008301866111e4565b6113da6020830185611103565b6113e76040830184611103565b949350505050565b60006113fa82611057565b915061140583611057565b925082820190508082111561141d5761141c6112db565b5b9291505056fea2646970667358221220cb317f824dd0f0b7f16945cd37b1bc4408f460a7d10dd2e8f3454657c342a37064736f6c634300081c0033",
  "linkReferences": {},
  "deployedLinkReferences": {}
}